:020000040000FA
:100000000C9462000C948A000C948A000C948A0070
:100010000C948A000C948A000C948A000C948A0038
:100020000C948A000C948A000C948A000C948A0028
:100030000C948A000C948A000C948A000C948A0018
:100040000C944A030C948A000C9418030C94F2024A
:100050000C948A000C948A000C948A000C948A00F8
:100060000C948A000C948A000000000024002700F1
:100070002A0000000000250028002B0000000000DE
:1000800023002600290004040404040404040202DA
:100090000202020203030303030301020408102007
:1000A0004080010204081020010204081020000012
:1000B0000008000201000003040700000000000027
:1000C00000006A0511241FBECFEFD8E0DEBFCDBF10
:1000D00011E0A0E0B1E0E2E8FBE002C005900D9283
:1000E000A631B107D9F721E0A6E1B1E001C01D9228
:1000F000A43CB207E1F710E0C2E6D0E004C02197CB
:10010000FE010E94B905C136D107C9F70E949403C8
:100110000C94BF050C940000AF92BF92CF92DF9277
:10012000EF92FF920F931F93CF93DF936C017B01AC
:100130008B01040F151FEB015E01AE18BF08C0173D
:10014000D10759F06991D601ED91FC910190F081B0
:10015000E02DC6010995892B79F7C501DF91CF9173
:100160001F910F91FF90EF90DF90CF90BF90AF90D5
:100170000895FC01538D448D252F30E0842F90E0AD
:10018000821B930B541710F0CF9608950197089592
:10019000FC01918D828D981761F0A28DAE0FBF2F5B
:1001A000B11D5D968C91928D9F5F9F73928F90E0B1
:1001B00008958FEF9FEF0895FC01918D828D981720
:1001C00031F0828DE80FF11D858D90E008958FEF5D
:1001D0009FEF0895FC01918D228D892F90E0805C26
:1001E0009F4F821B91098F739927089587E291E0B1
:1001F0000E94EA0021E0892B09F420E0822F089573
:1002000080E090E0892B29F00E94F60081110C9487
:1002100000000895FC01A48DA80FB92FB11DA35AA9
:10022000BF4F2C91848D90E001968F739927848F16
:10023000A689B7892C93A089B1898C918370806439
:100240008C93938D848D981306C00288F389E02DDA
:1002500080818F7D80830895EF92FF920F931F938B
:10026000CF93DF93EC0181E0888F9B8D8C8D981369
:100270001AC0E889F989808185FF15C09FB7F89475
:10028000EE89FF896083E889F989808183708064C1
:1002900080839FBF81E090E0DF91CF911F910F910C
:1002A000FF90EF900895F62E0B8D10E00F5F1F4F1B
:1002B0000F731127E02E8C8D8E110CC00FB607FC2A
:1002C000FACFE889F989808185FFF5CFCE010E94B8
:1002D0000A01F1CFEB8DEC0FFD2FF11DE35AFF4F1B
:1002E000F0829FB7F8940B8FEA89FB898081806246
:1002F000CFCFCF93DF93EC01888D8823B9F0AA8903
:10030000BB89E889F9898C9185FD03C0808186FDD0
:100310000DC00FB607FCF7CF8C9185FFF2CF80811F
:1003200085FFEDCFCE010E940A01E9CFDF91CF9189
:100330000895833081F028F4813099F08230A9F05B
:1003400008958730A9F08830C9F08430B1F48091E5
:1003500080008F7D03C0809180008F778093800024
:10036000089584B58F7784BD089584B58F7DFBCFC4
:100370008091B0008F778093B00008958091B00095
:100380008F7DF9CFCF93DF93282F30E0F901E2552D
:10039000FF4F8491F901E656FF4FD491F901EA57D6
:1003A000FF4FC491CC23A1F081110E949901EC2F41
:1003B000F0E0EE0FFF1FE458FF4FA591B491EC91D0
:1003C000ED2381E090E009F480E0DF91CF91089582
:1003D00080E090E0FACF1F93CF93DF93282F30E097
:1003E000F901E255FF4F8491F901E656FF4FD49190
:1003F000F901EA57FF4FC491CC23A9F0162F8111C0
:100400000E949901EC2FF0E0EE0FFF1FEE58FF4F16
:10041000A591B4918FB7F894EC91111108C0D095C3
:10042000DE23DC938FBFDF91CF911F910895DE2BE8
:10043000F8CFCF93DF9390E0FC01E656FF4F249175
:100440008A579F4FFC0184918823D1F090E0880F58
:10045000991FFC01E859FF4FA591B491FC01EE589A
:10046000FF4FC591D49161110EC09FB7F8948C9144
:10047000E22FE0958E238C932881E223E8839FBFAF
:10048000DF91CF9108958FB7F894EC91E22BEC9324
:100490008FBFF6CF3FB7F89480911B0190911C015C
:1004A000A0911D01B0911E0126B5A89B05C02F3F4C
:1004B00019F00196A11DB11D3FBFBA2FA92F982F8A
:1004C0008827BC01CD01620F711D811D911D42E085
:1004D000660F771F881F991F4A95D1F708958F924D
:1004E0009F92AF92BF92CF92DF92EF92FF920E94C3
:1004F0004A024B015C0184E6C82ED12CE12CF12C80
:100500000E944A02681979098A099B09683E73406A
:1005100081059105A8F321E0C21AD108E108F1088C
:1005200088EE880E83E0981EA11CB11CC114D10472
:10053000E104F10429F7FF90EF90DF90CF90BF9096
:10054000AF909F908F9008958F929F92AF92BF929D
:100550000F931F93CF93DF93CDB7DEB7A1970FB65D
:10056000F894DEBF0FBECDBF19A2423008F44AE0B6
:100570008E010F5D1F4F842E912CB12CA12CA50153
:1005800094010E949705E62FB901CA01EA3044F5AB
:10059000E05DD801EE938D01232B242B252B79F7D9
:1005A00090E080E0109769F0FD0101900020E9F7EC
:1005B0003197AF014A1B5B0BBD0187E291E00E94BE
:1005C0008C00A1960FB6F894DEBF0FBECDBFDF91B1
:1005D000CF911F910F91BF90AF909F908F900895F2
:1005E000E95CD7CF1F920F920FB60F9211242F9371
:1005F0003F934F935F936F937F938F939F93AF93AB
:10060000BF93EF93FF9387E291E00E940A01FF916D
:10061000EF91BF91AF919F918F917F916F915F917A
:100620004F913F912F910F900FBE0F901F901895F3
:100630001F920F920FB60F9211242F938F939F93B7
:10064000EF93FF93E0913701F09138018081E091C1
:100650003D01F0913E0182FD1BC0908180914001DF
:100660008F5F8F7320914101821741F0E09140012B
:10067000F0E0E95DFE4F958F80934001FF91EF918F
:100680009F918F912F910F900FBE0F901F901895F3
:100690008081F4CF1F920F920FB60F9211242F93E7
:1006A0003F938F939F93AF93BF9380911701909146
:1006B0001801A0911901B0911A013091160123E09F
:1006C000230F2D3758F50196A11DB11D209316015A
:1006D0008093170190931801A0931901B0931A0108
:1006E00080911B0190911C01A0911D01B0911E01F0
:1006F0000196A11DB11D80931B0190931C01A09335
:100700001D01B0931E01BF91AF919F918F913F91B9
:100710002F910F900FBE0F901F90189526E8230F72
:100720000296A11DB11DD2CF789484B5826084BD9C
:1007300084B5816084BD85B5826085BD85B58160E5
:1007400085BD80916E00816080936E001092810063
:10075000809181008260809381008091810081601E
:1007600080938100809180008160809380008091DF
:10077000B10084608093B1008091B000816080936B
:10078000B00080917A00846080937A0080917A0032
:10079000826080937A0080917A00816080937A00F1
:1007A00080917A00806880937A001092C10061E0A5
:1007B0008DE00E94190261E08CE00E94190261E064
:1007C0008BE00E94190261E08AE00E94190261E058
:1007D00089E00E94190261E088E00E94190261E04C
:1007E00087E00E94190260E082E00E94190260E046
:1007F00083E00E941902E0913701F091380182E014
:100800008083E0913301F09134011082E091350151
:10081000F09136018FEC808310923F01E0913B0113
:10082000F0913C0186E08083E0913901F0913A013A
:10083000808180618083E0913901F0913A0180816B
:1008400088608083E0913901F0913A01808180686D
:100850008083E0913901F0913A0180818F7D80831E
:10086000C0E0D0E009E010E082E00E94C2017C011B
:10087000909326018093250183E00E94C20120917C
:10088000230130912401E216F30671F021E0E21613
:10089000F10451F420912101309122012F5F3F4F4B
:1008A0003093220120932101F0922401E092230150
:1008B00020911F01309120018217930769F0813048
:1008C000910551F4209121013091220121503109EB
:1008D00030932201209321019093200180931F01E6
:1008E000C0902101D09022018AE0C816D10468F599
:1008F000F601E358FB4F0C94B9058704E404FA04AD
:1009000014052605380546055C055E05640561E0AD
:100910008DE00E94EB0161E08CE00E94EB0161E060
:100920008BE00E94EB0161E08AE00E94EB0161E054
:1009300089E00E94EB0161E088E00E94EB0160E049
:1009400087E00E94EB010E946F020D2C000CEE0864
:10095000FF084AE0C701B601F7FE0DC06DE287E26D
:1009600091E00E942C0166277727CB016C197D0945
:100970008E099F094AE00E94A40242E050E062E131
:1009800071E087E291E00E948C00809121019091BA
:1009900022010A9724F010922201109221018091E5
:1009A00021019091220197FF04C01093220100932E
:1009B0002101209709F458CF0E94F600882309F4FA
:1009C00053CF0E94000050CF60E08DE00E94EB0109
:1009D00061E08CE00E94EB0161E08BE00E94EB01A2
:1009E00060E08AE00E94EB0160E089E00E94EB0198
:1009F00060E0A2CF61E08DE00E94EB0161E08CE05D
:100A00000E94EB0160E08BE00E94EB0161E08AE074
:100A10000E94EB0161E089E00E94EB0160E088E068
:100A20000E94EB0161E08CCF61E08DE00E94EB0160
:100A300061E08CE00E94EB0161E08BE00E94EB0141
:100A400061E08AE00E94EB0160E0E5CF60E08DE0CC
:100A50000E94EB0161E08CE00E94EB0161E08BE021
:100A60000E94EB0160E08AE00E94EB0160E01FC0A1
:100A700061E08DE00E94EB0160E08CE00E94EB0100
:100A800061E08BE00E94EB0161E0EDCF61E08DE081
:100A90000E94EB0160E08CE00E94EB0161E08BE0E2
:100AA0000E94EB0161E08AE00E94EB0161E089E0D5
:100AB0000E94EB0161E0B3CF61E087CF61E08DE0A0
:100AC0000E94EB0161E0E7CF61E08DE00E94EB0165
:100AD00061E0D3CFE7E2F1E01382128288EE93E087
:100AE000A0E0B0E084839583A683B78384E091E09F
:100AF0009183808385EC90E09587848784EC90E0F7
:100B00009787868780EC90E0918B808B81EC90E0DA
:100B1000938B828B82EC90E0958B848B86EC90E0BB
:100B2000978B868B118E128E138E148E0895A1E2F0
:100B30001A2EAA1BBB1BFD010DC0AA1FBB1FEE1F57
:100B4000FF1FA217B307E407F50720F0A21BB30BA2
:100B5000E40BF50B661F771F881F991F1A9469F71E
:100B600060957095809590959B01AC01BD01CF017A
:100B70000895EE0FFF1F0590F491E02D0994F8946D
:100B8000FFCF000000002C018C00B9007901EA00C1
:080B9000C800DC000D0A0000A2
:107E0000112484B714BE81FFF0D085E080938100F7
:107E100082E08093C00088E18093C10086E0809377
:107E2000C20080E18093C4008EE0C9D0259A86E02C
:107E300020E33CEF91E0309385002093840096BBD3
:107E4000B09BFECF1D9AA8958150A9F7CC24DD24C4
:107E500088248394B5E0AB2EA1E19A2EF3E0BF2EE7
:107E6000A2D0813461F49FD0082FAFD0023811F036
:107E7000013811F484E001C083E08DD089C08234E0
:107E800011F484E103C0853419F485E0A6D080C0E4
:107E9000853579F488D0E82EFF2485D0082F10E0AE
:107EA000102F00270E291F29000F111F8ED06801E7
:107EB0006FC0863521F484E090D080E0DECF843638
:107EC00009F040C070D06FD0082F6DD080E0C81688
:107ED00080E7D80618F4F601B7BEE895C0E0D1E017
:107EE00062D089930C17E1F7F0E0CF16F0E7DF06D8
:107EF00018F0F601B7BEE89568D007B600FCFDCFD4
:107F0000A601A0E0B1E02C9130E011968C91119780
:107F100090E0982F8827822B932B1296FA010C0160
:107F200087BEE89511244E5F5F4FF1E0A038BF0790
:107F300051F7F601A7BEE89507B600FCFDCF97BE46
:107F4000E89526C08437B1F42ED02DD0F82E2BD052
:107F50003CD0F601EF2C8F010F5F1F4F84911BD097
:107F6000EA94F801C1F70894C11CD11CFA94CF0C13
:107F7000D11C0EC0853739F428D08EE10CD085E9AC
:107F80000AD08FE07ACF813511F488E018D01DD067
:107F900080E101D065CF982F8091C00085FFFCCF94
:107FA0009093C60008958091C00087FFFCCF809118
:107FB000C00084FD01C0A8958091C6000895E0E648
:107FC000F0E098E1908380830895EDDF803219F02E
:107FD00088E0F5DFFFCF84E1DECF1F93182FE3DFCA
:107FE0001150E9F7F2DF1F91089580E0E8DFEE27F6
:047FF000FF270994CA
:027FFE00040479
:00000001FF
